{
  "abi": [
    {
      "anonymous": false,
      "inputs": [
        {
          "indexed": true,
          "internalType": "address",
          "name": "_verifiedOwner",
          "type": "address"
        },
        {
          "indexed": true,
          "internalType": "uint256",
          "name": "_totalNoOfPropertyCurrently",
          "type": "uint256"
        },
        {
          "indexed": false,
          "internalType": "string",
          "name": "_msg",
          "type": "string"
        }
      ],
      "name": "PropertyAllocated",
      "type": "event"
    },
    {
      "anonymous": false,
      "inputs": [
        {
          "indexed": true,
          "internalType": "address",
          "name": "_from",
          "type": "address"
        },
        {
          "indexed": false,
          "internalType": "address",
          "name": "",
          "type": "address"
        }
      ],
      "name": "PropertyTransferred",
      "type": "event"
    },
    {
      "inputs": [],
      "name": "DA",
      "outputs": [
        {
          "internalType": "address",
          "name": "",
          "type": "address"
        }
      ],
      "stateMutability": "view",
      "type": "function"
    },
    {
      "inputs": [],
      "name": "PropertyTransfer",
      "outputs": [],
      "stateMutability": "nonpayable",
      "type": "function"
    },
    {
      "inputs": [
        {
          "internalType": "address",
          "name": "_verifiedOwner",
          "type": "address"
        },
        {
          "internalType": "string",
          "name": "_propertyName",
          "type": "string"
        }
      ],
      "name": "allotProperty",
      "outputs": [],
      "stateMutability": "nonpayable",
      "type": "function"
    },
    {
      "inputs": [
        {
          "internalType": "address",
          "name": "_onwerAddress",
          "type": "address"
        }
      ],
      "name": "getPropertyCOuntOfANyAddress",
      "outputs": [
        {
          "internalType": "uint256",
          "name": "",
          "type": "uint256"
        }
      ],
      "stateMutability": "nonpayable",
      "type": "function"
    },
    {
      "inputs": [
        {
          "internalType": "address",
          "name": "_checkOwnerAddress",
          "type": "address"
        },
        {
          "internalType": "string",
          "name": "_propertyName",
          "type": "string"
        }
      ],
      "name": "isOwner",
      "outputs": [
        {
          "internalType": "uint256",
          "name": "",
          "type": "uint256"
        }
      ],
      "stateMutability": "nonpayable",
      "type": "function"
    },
    {
      "inputs": [
        {
          "internalType": "address",
          "name": "",
          "type": "address"
        },
        {
          "internalType": "uint256",
          "name": "",
          "type": "uint256"
        }
      ],
      "name": "propertiesOwner",
      "outputs": [
        {
          "internalType": "string",
          "name": "name",
          "type": "string"
        },
        {
          "internalType": "bool",
          "name": "isSold",
          "type": "bool"
        }
      ],
      "stateMutability": "view",
      "type": "function"
    },
    {
      "inputs": [],
      "name": "totalNoOfProperties",
      "outputs": [
        {
          "internalType": "uint256",
          "name": "",
          "type": "uint256"
        }
      ],
      "stateMutability": "view",
      "type": "function"
    },
    {
      "inputs": [
        {
          "internalType": "address",
          "name": "_to",
          "type": "address"
        },
        {
          "internalType": "string",
          "name": "_propertyName",
          "type": "string"
        }
      ],
      "name": "transferProperty",
      "outputs": [
        {
          "internalType": "bool",
          "name": "",
          "type": "bool"
        },
        {
          "internalType": "uint256",
          "name": "",
          "type": "uint256"
        }
      ],
      "stateMutability": "nonpayable",
      "type": "function"
    }
  ],
  "bytecode": "608060405234801561001057600080fd5b5061083f806100206000396000f3fe608060405234801561001057600080fd5b50600436106100885760003560e01c8063756494ce1161005b578063756494ce14610100578063883aba4f1461012a5780638f3c73821461013d578063cd3799641461015e57600080fd5b806309c1b3851461008d5780630c395781146100a257806342bf90ac146100d25780634d8fef1f146100e9575b600080fd5b6100a061009b366004610613565b610171565b005b6000546100b5906001600160a01b031681565b6040516001600160a01b0390911681526020015b60405180910390f35b6100db60015481565b6040519081526020016100c9565b6100a0600080546001600160a01b03191633179055565b61011361010e366004610613565b610250565b6040805192151583526020830191909152016100c9565b6100db6101383660046106d5565b6103df565b61015061014b3660046106f7565b61041d565b6040516100c992919061076e565b6100db61016c366004610613565b6104cf565b6000546001600160a01b0316331461018857600080fd5b6001600160a01b0382166000908152600260209081526040808320600390925282208054849391826101b983610792565b91905055815260200190815260200160002060000190805190602001906101e1929190610548565b50600180549060006101f283610792565b90915550506001600160a01b038216600081815260036020526040908190205490519091907fc6a45a3f9052d1b36d3b5bcef462f9e55ed437b7f5d9237130094c151035a768906102449085906107bb565b60405180910390a35050565b600080600061025f33856104cf565b9050600081633b9ac9ff14158015610295575033600090815260026020908152604080832085845290915290206001015460ff16155b15610392573360009081526002602090815260408083208584528083528184206001818101805460ff191690911790558251808401909352600483526314dbdb1960e21b838501908152948790529252516102f09290610548565b506001600160a01b03861660009081526002602090815260408083206003909252822080548893918261032283610792565b919050558152602001908152602001600020600001908051906020019061034a929190610548565b50506040516001600160a01b038616815260019033907f946b72ea82dd2cb8474df277536c2f452c2e20f89b1313a475c1ccfbf6bf1d959060200160405180910390a26103d5565b506040516001600160a01b038616815260009033907f946b72ea82dd2cb8474df277536c2f452c2e20f89b1313a475c1ccfbf6bf1d959060200160405180910390a25b9590945092505050565b600080805b6001600160a01b038416600090815260036020526040902054811015610416578061040e81610792565b9150506103e4565b5092915050565b6002602090815260009283526040808420909152908252902080548190610443906107ce565b80601f016020809104026020016040519081016040528092919081815260200182805461046f906107ce565b80156104bc5780601f10610491576101008083540402835291602001916104bc565b820191906000526020600020905b81548152906001019060200180831161049f57829003601f168201915b5050506001909301549192505060ff1682565b6001600160a01b0382166000908152600360205260408120548190819015610525576001600160a01b038516600090815260026020908152604080832085845290915290206001908101805460ff191690911790555b6001811515141561053857509050610542565b633b9ac9ff925050505b92915050565b828054610554906107ce565b90600052602060002090601f01602090048101928261057657600085556105bc565b82601f1061058f57805160ff19168380011785556105bc565b828001600101855582156105bc579182015b828111156105bc5782518255916020019190600101906105a1565b506105c89291506105cc565b5090565b5b808211156105c857600081556001016105cd565b80356001600160a01b03811681146105f857600080fd5b919050565b634e487b7160e01b600052604160045260246000fd5b6000806040838503121561062657600080fd5b61062f836105e1565b9150602083013567ffffffffffffffff8082111561064c57600080fd5b818501915085601f83011261066057600080fd5b813581811115610672576106726105fd565b604051601f8201601f19908116603f0116810190838211818310171561069a5761069a6105fd565b816040528281528860208487010111156106b357600080fd5b8260208601602083013760006020848301015280955050505050509250929050565b6000602082840312156106e757600080fd5b6106f0826105e1565b9392505050565b6000806040838503121561070a57600080fd5b610713836105e1565b946020939093013593505050565b6000815180845260005b818110156107475760208185018101518683018201520161072b565b81811115610759576000602083870101525b50601f01601f19169290920160200192915050565b6040815260006107816040830185610721565b905082151560208301529392505050565b60006000198214156107b457634e487b7160e01b600052601160045260246000fd5b5060010190565b6020815260006106f06020830184610721565b600181811c908216806107e257607f821691505b6020821081141561080357634e487b7160e01b600052602260045260246000fd5b5091905056fea264697066735822122024b86ce64248bb0e2e118b85df1dac3b7e4157b88cc9254852aac6cc50e007af64736f6c634300080b0033",
  "bytecodeSha1": "379bf08be2f3b2153adaf11195c17199e50ab46b",
  "compiler": {
    "evm_version": "istanbul",
    "optimizer": {
      "enabled": true,
      "runs": 200
    },
    "version": "0.8.11+commit.d7f03943"
  },
  "contractName": "propertyTransfer",
  "language": "Solidity",
  "natspec": {
    "kind": "dev",
    "methods": {},
    "version": 1
  },
  "opcodes": "PUSH1 0x80 PUSH1 0x40 MSTORE CALLVALUE DUP1 ISZERO PUSH2 0x10 JUMPI PUSH1 0x0 DUP1 REVERT JUMPDEST POP PUSH1 0x4 CALLDATASIZE LT PUSH2 0x88 JUMPI PUSH1 0x0 CALLDATALOAD PUSH1 0xE0 SHR DUP1 PUSH4 0x756494CE GT PUSH2 0x5B JUMPI DUP1 PUSH4 0x756494CE EQ PUSH2 0x100 JUMPI DUP1 PUSH4 0x883ABA4F EQ PUSH2 0x12A JUMPI DUP1 PUSH4 0x8F3C7382 EQ PUSH2 0x13D JUMPI DUP1 PUSH4 0xCD379964 EQ PUSH2 0x15E JUMPI PUSH1 0x0 DUP1 REVERT JUMPDEST DUP1 PUSH4 0x9C1B385 EQ PUSH2 0x8D JUMPI DUP1 PUSH4 0xC395781 EQ PUSH2 0xA2 JUMPI DUP1 PUSH4 0x42BF90AC EQ PUSH2 0xD2 JUMPI DUP1 PUSH4 0x4D8FEF1F EQ PUSH2 0xE9 JUMPI JUMPDEST PUSH1 0x0 DUP1 REVERT JUMPDEST PUSH2 0xA0 PUSH2 0x9B CALLDATASIZE PUSH1 0x4 PUSH2 0x613 JUMP JUMPDEST PUSH2 0x171 JUMP JUMPDEST STOP JUMPDEST PUSH1 0x0 SLOAD PUSH2 0xB5 SWAP1 PUSH1 0x1 PUSH1 0x1 PUSH1 0xA0 SHL SUB AND DUP2 JUMP JUMPDEST PUSH1 0x40 MLOAD PUSH1 0x1 PUSH1 0x1 PUSH1 0xA0 SHL SUB SWAP1 SWAP2 AND DUP2 MSTORE PUSH1 0x20 ADD JUMPDEST PUSH1 0x40 MLOAD DUP1 SWAP2 SUB SWAP1 RETURN JUMPDEST PUSH2 0xDB PUSH1 0x1 SLOAD DUP2 JUMP JUMPDEST PUSH1 0x40 MLOAD SWAP1 DUP2 MSTORE PUSH1 0x20 ADD PUSH2 0xC9 JUMP JUMPDEST PUSH2 0xA0 PUSH1 0x0 DUP1 SLOAD PUSH1 0x1 PUSH1 0x1 PUSH1 0xA0 SHL SUB NOT AND CALLER OR SWAP1 SSTORE JUMP JUMPDEST PUSH2 0x113 PUSH2 0x10E CALLDATASIZE PUSH1 0x4 PUSH2 0x613 JUMP JUMPDEST PUSH2 0x250 JUMP JUMPDEST PUSH1 0x40 DUP1 MLOAD SWAP3 ISZERO ISZERO DUP4 MSTORE PUSH1 0x20 DUP4 ADD SWAP2 SWAP1 SWAP2 MSTORE ADD PUSH2 0xC9 JUMP JUMPDEST PUSH2 0xDB PUSH2 0x138 CALLDATASIZE PUSH1 0x4 PUSH2 0x6D5 JUMP JUMPDEST PUSH2 0x3DF JUMP JUMPDEST PUSH2 0x150 PUSH2 0x14B CALLDATASIZE PUSH1 0x4 PUSH2 0x6F7 JUMP JUMPDEST PUSH2 0x41D JUMP JUMPDEST PUSH1 0x40 MLOAD PUSH2 0xC9 SWAP3 SWAP2 SWAP1 PUSH2 0x76E JUMP JUMPDEST PUSH2 0xDB PUSH2 0x16C CALLDATASIZE PUSH1 0x4 PUSH2 0x613 JUMP JUMPDEST PUSH2 0x4CF JUMP JUMPDEST PUSH1 0x0 SLOAD PUSH1 0x1 PUSH1 0x1 PUSH1 0xA0 SHL SUB AND CALLER EQ PUSH2 0x188 JUMPI PUSH1 0x0 DUP1 REVERT JUMPDEST PUSH1 0x1 PUSH1 0x1 PUSH1 0xA0 SHL SUB DUP3 AND PUSH1 0x0 SWAP1 DUP2 MSTORE PUSH1 0x2 PUSH1 0x20 SWAP1 DUP2 MSTORE PUSH1 0x40 DUP1 DUP4 KECCAK256 PUSH1 0x3 SWAP1 SWAP3 MSTORE DUP3 KECCAK256 DUP1 SLOAD DUP5 SWAP4 SWAP2 DUP3 PUSH2 0x1B9 DUP4 PUSH2 0x792 JUMP JUMPDEST SWAP2 SWAP1 POP SSTORE DUP2 MSTORE PUSH1 0x20 ADD SWAP1 DUP2 MSTORE PUSH1 0x20 ADD PUSH1 0x0 KECCAK256 PUSH1 0x0 ADD SWAP1 DUP1 MLOAD SWAP1 PUSH1 0x20 ADD SWAP1 PUSH2 0x1E1 SWAP3 SWAP2 SWAP1 PUSH2 0x548 JUMP JUMPDEST POP PUSH1 0x1 DUP1 SLOAD SWAP1 PUSH1 0x0 PUSH2 0x1F2 DUP4 PUSH2 0x792 JUMP JUMPDEST SWAP1 SWAP2 SSTORE POP POP PUSH1 0x1 PUSH1 0x1 PUSH1 0xA0 SHL SUB DUP3 AND PUSH1 0x0 DUP2 DUP2 MSTORE PUSH1 0x3 PUSH1 0x20 MSTORE PUSH1 0x40 SWAP1 DUP2 SWAP1 KECCAK256 SLOAD SWAP1 MLOAD SWAP1 SWAP2 SWAP1 PUSH32 0xC6A45A3F9052D1B36D3B5BCEF462F9E55ED437B7F5D9237130094C151035A768 SWAP1 PUSH2 0x244 SWAP1 DUP6 SWAP1 PUSH2 0x7BB JUMP JUMPDEST PUSH1 0x40 MLOAD DUP1 SWAP2 SUB SWAP1 LOG3 POP POP JUMP JUMPDEST PUSH1 0x0 DUP1 PUSH1 0x0 PUSH2 0x25F CALLER DUP6 PUSH2 0x4CF JUMP JUMPDEST SWAP1 POP PUSH1 0x0 DUP2 PUSH4 0x3B9AC9FF EQ ISZERO DUP1 ISZERO PUSH2 0x295 JUMPI POP CALLER PUSH1 0x0 SWAP1 DUP2 MSTORE PUSH1 0x2 PUSH1 0x20 SWAP1 DUP2 MSTORE PUSH1 0x40 DUP1 DUP4 KECCAK256 DUP6 DUP5 MSTORE SWAP1 SWAP2 MSTORE SWAP1 KECCAK256 PUSH1 0x1 ADD SLOAD PUSH1 0xFF AND ISZERO JUMPDEST ISZERO PUSH2 0x392 JUMPI CALLER PUSH1 0x0 SWAP1 DUP2 MSTORE PUSH1 0x2 PUSH1 0x20 SWAP1 DUP2 MSTORE PUSH1 0x40 DUP1 DUP4 KECCAK256 DUP6 DUP5 MSTORE DUP1 DUP4 MSTORE DUP2 DUP5 KECCAK256 PUSH1 0x1 DUP2 DUP2 ADD DUP1 SLOAD PUSH1 0xFF NOT AND SWAP1 SWAP2 OR SWAP1 SSTORE DUP3 MLOAD DUP1 DUP5 ADD SWAP1 SWAP4 MSTORE PUSH1 0x4 DUP4 MSTORE PUSH4 0x14DBDB19 PUSH1 0xE2 SHL DUP4 DUP6 ADD SWAP1 DUP2 MSTORE SWAP5 DUP8 SWAP1 MSTORE SWAP3 MSTORE MLOAD PUSH2 0x2F0 SWAP3 SWAP1 PUSH2 0x548 JUMP JUMPDEST POP PUSH1 0x1 PUSH1 0x1 PUSH1 0xA0 SHL SUB DUP7 AND PUSH1 0x0 SWAP1 DUP2 MSTORE PUSH1 0x2 PUSH1 0x20 SWAP1 DUP2 MSTORE PUSH1 0x40 DUP1 DUP4 KECCAK256 PUSH1 0x3 SWAP1 SWAP3 MSTORE DUP3 KECCAK256 DUP1 SLOAD DUP9 SWAP4 SWAP2 DUP3 PUSH2 0x322 DUP4 PUSH2 0x792 JUMP JUMPDEST SWAP2 SWAP1 POP SSTORE DUP2 MSTORE PUSH1 0x20 ADD SWAP1 DUP2 MSTORE PUSH1 0x20 ADD PUSH1 0x0 KECCAK256 PUSH1 0x0 ADD SWAP1 DUP1 MLOAD SWAP1 PUSH1 0x20 ADD SWAP1 PUSH2 0x34A SWAP3 SWAP2 SWAP1 PUSH2 0x548 JUMP JUMPDEST POP POP PUSH1 0x40 MLOAD PUSH1 0x1 PUSH1 0x1 PUSH1 0xA0 SHL SUB DUP7 AND DUP2 MSTORE PUSH1 0x1 SWAP1 CALLER SWAP1 PUSH32 0x946B72EA82DD2CB8474DF277536C2F452C2E20F89B1313A475C1CCFBF6BF1D95 SWAP1 PUSH1 0x20 ADD PUSH1 0x40 MLOAD DUP1 SWAP2 SUB SWAP1 LOG2 PUSH2 0x3D5 JUMP JUMPDEST POP PUSH1 0x40 MLOAD PUSH1 0x1 PUSH1 0x1 PUSH1 0xA0 SHL SUB DUP7 AND DUP2 MSTORE PUSH1 0x0 SWAP1 CALLER SWAP1 PUSH32 0x946B72EA82DD2CB8474DF277536C2F452C2E20F89B1313A475C1CCFBF6BF1D95 SWAP1 PUSH1 0x20 ADD PUSH1 0x40 MLOAD DUP1 SWAP2 SUB SWAP1 LOG2 JUMPDEST SWAP6 SWAP1 SWAP5 POP SWAP3 POP POP POP JUMP JUMPDEST PUSH1 0x0 DUP1 DUP1 JUMPDEST PUSH1 0x1 PUSH1 0x1 PUSH1 0xA0 SHL SUB DUP5 AND PUSH1 0x0 SWAP1 DUP2 MSTORE PUSH1 0x3 PUSH1 0x20 MSTORE PUSH1 0x40 SWAP1 KECCAK256 SLOAD DUP2 LT ISZERO PUSH2 0x416 JUMPI DUP1 PUSH2 0x40E DUP2 PUSH2 0x792 JUMP JUMPDEST SWAP2 POP POP PUSH2 0x3E4 JUMP JUMPDEST POP SWAP3 SWAP2 POP POP JUMP JUMPDEST PUSH1 0x2 PUSH1 0x20 SWAP1 DUP2 MSTORE PUSH1 0x0 SWAP3 DUP4 MSTORE PUSH1 0x40 DUP1 DUP5 KECCAK256 SWAP1 SWAP2 MSTORE SWAP1 DUP3 MSTORE SWAP1 KECCAK256 DUP1 SLOAD DUP2 SWAP1 PUSH2 0x443 SWAP1 PUSH2 0x7CE JUMP JUMPDEST DUP1 PUSH1 0x1F ADD PUSH1 0x20 DUP1 SWAP2 DIV MUL PUSH1 0x20 ADD PUSH1 0x40 MLOAD SWAP1 DUP2 ADD PUSH1 0x40 MSTORE DUP1 SWAP3 SWAP2 SWAP1 DUP2 DUP2 MSTORE PUSH1 0x20 ADD DUP3 DUP1 SLOAD PUSH2 0x46F SWAP1 PUSH2 0x7CE JUMP JUMPDEST DUP1 ISZERO PUSH2 0x4BC JUMPI DUP1 PUSH1 0x1F LT PUSH2 0x491 JUMPI PUSH2 0x100 DUP1 DUP4 SLOAD DIV MUL DUP4 MSTORE SWAP2 PUSH1 0x20 ADD SWAP2 PUSH2 0x4BC JUMP JUMPDEST DUP3 ADD SWAP2 SWAP1 PUSH1 0x0 MSTORE PUSH1 0x20 PUSH1 0x0 KECCAK256 SWAP1 JUMPDEST DUP2 SLOAD DUP2 MSTORE SWAP1 PUSH1 0x1 ADD SWAP1 PUSH1 0x20 ADD DUP1 DUP4 GT PUSH2 0x49F JUMPI DUP3 SWAP1 SUB PUSH1 0x1F AND DUP3 ADD SWAP2 JUMPDEST POP POP POP PUSH1 0x1 SWAP1 SWAP4 ADD SLOAD SWAP2 SWAP3 POP POP PUSH1 0xFF AND DUP3 JUMP JUMPDEST PUSH1 0x1 PUSH1 0x1 PUSH1 0xA0 SHL SUB DUP3 AND PUSH1 0x0 SWAP1 DUP2 MSTORE PUSH1 0x3 PUSH1 0x20 MSTORE PUSH1 0x40 DUP2 KECCAK256 SLOAD DUP2 SWAP1 DUP2 SWAP1 ISZERO PUSH2 0x525 JUMPI PUSH1 0x1 PUSH1 0x1 PUSH1 0xA0 SHL SUB DUP6 AND PUSH1 0x0 SWAP1 DUP2 MSTORE PUSH1 0x2 PUSH1 0x20 SWAP1 DUP2 MSTORE PUSH1 0x40 DUP1 DUP4 KECCAK256 DUP6 DUP5 MSTORE SWAP1 SWAP2 MSTORE SWAP1 KECCAK256 PUSH1 0x1 SWAP1 DUP2 ADD DUP1 SLOAD PUSH1 0xFF NOT AND SWAP1 SWAP2 OR SWAP1 SSTORE JUMPDEST PUSH1 0x1 DUP2 ISZERO ISZERO EQ ISZERO PUSH2 0x538 JUMPI POP SWAP1 POP PUSH2 0x542 JUMP JUMPDEST PUSH4 0x3B9AC9FF SWAP3 POP POP POP JUMPDEST SWAP3 SWAP2 POP POP JUMP JUMPDEST DUP3 DUP1 SLOAD PUSH2 0x554 SWAP1 PUSH2 0x7CE JUMP JUMPDEST SWAP1 PUSH1 0x0 MSTORE PUSH1 0x20 PUSH1 0x0 KECCAK256 SWAP1 PUSH1 0x1F ADD PUSH1 0x20 SWAP1 DIV DUP2 ADD SWAP3 DUP3 PUSH2 0x576 JUMPI PUSH1 0x0 DUP6 SSTORE PUSH2 0x5BC JUMP JUMPDEST DUP3 PUSH1 0x1F LT PUSH2 0x58F JUMPI DUP1 MLOAD PUSH1 0xFF NOT AND DUP4 DUP1 ADD OR DUP6 SSTORE PUSH2 0x5BC JUMP JUMPDEST DUP3 DUP1 ADD PUSH1 0x1 ADD DUP6 SSTORE DUP3 ISZERO PUSH2 0x5BC JUMPI SWAP2 DUP3 ADD JUMPDEST DUP3 DUP2 GT ISZERO PUSH2 0x5BC JUMPI DUP3 MLOAD DUP3 SSTORE SWAP2 PUSH1 0x20 ADD SWAP2 SWAP1 PUSH1 0x1 ADD SWAP1 PUSH2 0x5A1 JUMP JUMPDEST POP PUSH2 0x5C8 SWAP3 SWAP2 POP PUSH2 0x5CC JUMP JUMPDEST POP SWAP1 JUMP JUMPDEST JUMPDEST DUP1 DUP3 GT ISZERO PUSH2 0x5C8 JUMPI PUSH1 0x0 DUP2 SSTORE PUSH1 0x1 ADD PUSH2 0x5CD JUMP JUMPDEST DUP1 CALLDATALOAD PUSH1 0x1 PUSH1 0x1 PUSH1 0xA0 SHL SUB DUP2 AND DUP2 EQ PUSH2 0x5F8 JUMPI PUSH1 0x0 DUP1 REVERT JUMPDEST SWAP2 SWAP1 POP JUMP JUMPDEST PUSH4 0x4E487B71 PUSH1 0xE0 SHL PUSH1 0x0 MSTORE PUSH1 0x41 PUSH1 0x4 MSTORE PUSH1 0x24 PUSH1 0x0 REVERT JUMPDEST PUSH1 0x0 DUP1 PUSH1 0x40 DUP4 DUP6 SUB SLT ISZERO PUSH2 0x626 JUMPI PUSH1 0x0 DUP1 REVERT JUMPDEST PUSH2 0x62F DUP4 PUSH2 0x5E1 JUMP JUMPDEST SWAP2 POP PUSH1 0x20 DUP4 ADD CALLDATALOAD PUSH8 0xFFFFFFFFFFFFFFFF DUP1 DUP3 GT ISZERO PUSH2 0x64C JUMPI PUSH1 0x0 DUP1 REVERT JUMPDEST DUP2 DUP6 ADD SWAP2 POP DUP6 PUSH1 0x1F DUP4 ADD SLT PUSH2 0x660 JUMPI PUSH1 0x0 DUP1 REVERT JUMPDEST DUP2 CALLDATALOAD DUP2 DUP2 GT ISZERO PUSH2 0x672 JUMPI PUSH2 0x672 PUSH2 0x5FD JUMP JUMPDEST PUSH1 0x40 MLOAD PUSH1 0x1F DUP3 ADD PUSH1 0x1F NOT SWAP1 DUP2 AND PUSH1 0x3F ADD AND DUP2 ADD SWAP1 DUP4 DUP3 GT DUP2 DUP4 LT OR ISZERO PUSH2 0x69A JUMPI PUSH2 0x69A PUSH2 0x5FD JUMP JUMPDEST DUP2 PUSH1 0x40 MSTORE DUP3 DUP2 MSTORE DUP9 PUSH1 0x20 DUP5 DUP8 ADD ADD GT ISZERO PUSH2 0x6B3 JUMPI PUSH1 0x0 DUP1 REVERT JUMPDEST DUP3 PUSH1 0x20 DUP7 ADD PUSH1 0x20 DUP4 ADD CALLDATACOPY PUSH1 0x0 PUSH1 0x20 DUP5 DUP4 ADD ADD MSTORE DUP1 SWAP6 POP POP POP POP POP POP SWAP3 POP SWAP3 SWAP1 POP JUMP JUMPDEST PUSH1 0x0 PUSH1 0x20 DUP3 DUP5 SUB SLT ISZERO PUSH2 0x6E7 JUMPI PUSH1 0x0 DUP1 REVERT JUMPDEST PUSH2 0x6F0 DUP3 PUSH2 0x5E1 JUMP JUMPDEST SWAP4 SWAP3 POP POP POP JUMP JUMPDEST PUSH1 0x0 DUP1 PUSH1 0x40 DUP4 DUP6 SUB SLT ISZERO PUSH2 0x70A JUMPI PUSH1 0x0 DUP1 REVERT JUMPDEST PUSH2 0x713 DUP4 PUSH2 0x5E1 JUMP JUMPDEST SWAP5 PUSH1 0x20 SWAP4 SWAP1 SWAP4 ADD CALLDATALOAD SWAP4 POP POP POP JUMP JUMPDEST PUSH1 0x0 DUP2 MLOAD DUP1 DUP5 MSTORE PUSH1 0x0 JUMPDEST DUP2 DUP2 LT ISZERO PUSH2 0x747 JUMPI PUSH1 0x20 DUP2 DUP6 ADD DUP2 ADD MLOAD DUP7 DUP4 ADD DUP3 ADD MSTORE ADD PUSH2 0x72B JUMP JUMPDEST DUP2 DUP2 GT ISZERO PUSH2 0x759 JUMPI PUSH1 0x0 PUSH1 0x20 DUP4 DUP8 ADD ADD MSTORE JUMPDEST POP PUSH1 0x1F ADD PUSH1 0x1F NOT AND SWAP3 SWAP1 SWAP3 ADD PUSH1 0x20 ADD SWAP3 SWAP2 POP POP JUMP JUMPDEST PUSH1 0x40 DUP2 MSTORE PUSH1 0x0 PUSH2 0x781 PUSH1 0x40 DUP4 ADD DUP6 PUSH2 0x721 JUMP JUMPDEST SWAP1 POP DUP3 ISZERO ISZERO PUSH1 0x20 DUP4 ADD MSTORE SWAP4 SWAP3 POP POP POP JUMP JUMPDEST PUSH1 0x0 PUSH1 0x0 NOT DUP3 EQ ISZERO PUSH2 0x7B4 JUMPI PUSH4 0x4E487B71 PUSH1 0xE0 SHL PUSH1 0x0 MSTORE PUSH1 0x11 PUSH1 0x4 MSTORE PUSH1 0x24 PUSH1 0x0 REVERT JUMPDEST POP PUSH1 0x1 ADD SWAP1 JUMP JUMPDEST PUSH1 0x20 DUP2 MSTORE PUSH1 0x0 PUSH2 0x6F0 PUSH1 0x20 DUP4 ADD DUP5 PUSH2 0x721 JUMP JUMPDEST PUSH1 0x1 DUP2 DUP2 SHR SWAP1 DUP3 AND DUP1 PUSH2 0x7E2 JUMPI PUSH1 0x7F DUP3 AND SWAP2 POP JUMPDEST PUSH1 0x20 DUP3 LT DUP2 EQ ISZERO PUSH2 0x803 JUMPI PUSH4 0x4E487B71 PUSH1 0xE0 SHL PUSH1 0x0 MSTORE PUSH1 0x22 PUSH1 0x4 MSTORE PUSH1 0x24 PUSH1 0x0 REVERT JUMPDEST POP SWAP2 SWAP1 POP JUMP INVALID LOG2 PUSH5 0x6970667358 0x22 SLT KECCAK256 0x24 0xB8 PUSH13 0xE64248BB0E2E118B85DF1DAC3B PUSH31 0x4157B88CC9254852AAC6CC50E007AF64736F6C634300080B00330000000000 ",
  "sha1": "880071eb059f1a6df7079a8b1d50053736055de8",
  "source": "//SPDX-License-Identifier: MIT\n\npragma solidity ^0.8.7;\n\ncontract propertyTransfer {\n    address public DA;\n    uint256 public totalNoOfProperties;\n\n    function PropertyTransfer() public {\n        DA=msg.sender;\n    }\n    modifier onlyOwner() {\n        require(msg.sender==DA);\n        _;\n    }\n    struct Property {\n        string name;\n        bool isSold;\n    }\n    mapping(address => mapping(uint256 => Property)) public propertiesOwner;\n    mapping(address => uint256) individualCountOfPropertyOwner;\n\n    event PropertyAllocated(address indexed _verifiedOwner, uint256 indexed _totalNoOfPropertyCurrently, string _msg);\n    event PropertyTransferred(address indexed _from, address);\n    \n    function getPropertyCOuntOfANyAddress(address _onwerAddress) public returns(uint256) {\n        uint count=0;\n        for(uint i=0; i<individualCountOfPropertyOwner[_onwerAddress]; i++) {\n            //if(propertyTransfer [_onwerAddress][i].isSold!=true)\n            //count++;\n        }\n        return count;\n    }\n    function allotProperty(address _verifiedOwner, string memory _propertyName)onlyOwner public\n    {\n        propertiesOwner[_verifiedOwner][individualCountOfPropertyOwner[_verifiedOwner]++].name = _propertyName;\n        totalNoOfProperties++;\n       emit  PropertyAllocated(_verifiedOwner, individualCountOfPropertyOwner[_verifiedOwner], _propertyName);\n\n    }\n    function isOwner(address _checkOwnerAddress, string memory _propertyName) public returns(uint) {\n        uint i;\n        bool flag;\n        for(i=0;i<individualCountOfPropertyOwner[_checkOwnerAddress]; i++)\n        {\n            if(propertiesOwner[_checkOwnerAddress][i].isSold=true) {\n                break;\n            }\n            if(flag==true) {\n                break;\n            }\n        }\n        if(flag==true) {\n            return i;   \n        }\n        else{\n            return 999999999;\n        }\n    }\n    function transferProperty(address _to, string memory _propertyName) public returns(bool, uint) {\n        uint256 checkOwner= isOwner(msg.sender, _propertyName);\n        bool flag;\n        if(checkOwner!= 999999999 && propertiesOwner[msg.sender][checkOwner].isSold ==false) {\n            propertiesOwner[msg.sender][checkOwner].isSold = true;\n            propertiesOwner[msg.sender][checkOwner].name = \"Sold\";\n            propertiesOwner[_to][individualCountOfPropertyOwner[_to]++].name = _propertyName;\n            flag = true;\n           emit PropertyTransferred(msg.sender, _to);\n        }\n        else{\n            flag=false;\n            emit PropertyTransferred(msg.sender, _to);\n        }\n        return (flag, checkOwner);\n    }\n\n}\n ",
  "sourcePath": "contracts/PropertyAllocation.sol",
  "type": "contract"
}